:020000040000FA
:100000008020002065010000690100006B010000F4
:1000100000000000000000000000000000000000E0
:100020000000000000000000000000006D01000062
:1000300000000000000000006F010000BD0500008E
:1000400073010000750100007701000079010000D4
:100050007B0100007D0100007F01000081010000A4
:100060008301000085010000870100008901000074
:100070008B0100008D0100008F0100009101000044
:100080009301000095010000970100009901000014
:100090009B0100009D0100009F010000A1010000E4
:1000A000A30100000000000000000000A501000006
:1000B000A7010000A9010000AB010000AD01000094
:1000C00000F002F800F03EF80CA030C80838241800
:1000D0002D18A246671EAB4654465D46AC4201D180
:1000E00000F030F87E460F3E0FCCB6460126334274
:1000F00000D0FB1AA246AB4633431847E80800007D
:1001000008090000103A02D378C878C1FAD852071B
:1001100001D330C830C101D504680C6070470000BD
:100120000023002400250026103A01D378C1FBD813
:10013000520700D330C100D50B6070471FB51FBDFB
:1001400010B510BD00F0F4F81146FFF7F7FF00F00E
:10015000DFFA00F00CF903B4FFF7F2FF03BC00F084
:1001600013F9000015480047FEE7FEE7FEE7FEE74B
:10017000FEE7FEE7FEE7FEE7FEE7FEE7FEE7FEE757
:10018000FEE7FEE7FEE7FEE7FEE7FEE7FEE7FEE747
:10019000FEE7FEE7FEE7FEE7FEE7FEE7FEE7FEE737
:1001A000FEE7FEE7FEE7FEE7FEE7FEE7FEE700000C
:1001B00003480449044A054B70470000C100000091
:1001C000800000208020002080100020801000206F
:1001D000002203098B422CD3030A8B4211D3002344
:1001E0009C464EE003460B433CD4002243088B421E
:1001F00031D303098B421CD3030A8B4201D39446AB
:100200003FE0C3098B4201D3CB01C01A524183099D
:100210008B4201D38B01C01A524143098B4201D357
:100220004B01C01A524103098B4201D30B01C01A82
:100230005241C3088B4201D3CB00C01A52418308FC
:100240008B4201D38B00C01A524143088B4201D329
:100250004B00C01A5241411A00D201465241104689
:1002600070475DE0CA0F00D04942031000D34042FE
:10027000534000229C4603098B422DD3030A8B4234
:1002800012D3FC22890112BA030A8B420CD38901D2
:1002900092118B4208D3890192118B4204D38901B8
:1002A0003AD0921100E08909C3098B4201D3CB01F6
:1002B000C01A524183098B4201D38B01C01A5241AB
:1002C00043098B4201D34B01C01A524103098B42AF
:1002D00001D30B01C01A5241C3088B4201D3CB009A
:1002E000C01A524183088B4201D38B00C01A52417D
:1002F000D9D243088B4201D34B00C01A5241411A54
:1003000000D20146634652415B10104601D3404281
:10031000002B00D54942704763465B1000D3404232
:1003200001B50020C046C04602BD70477047704707
:10033000754600F025F8AE46050069465346C008EC
:10034000C000854618B020B5FFF732FF60BC00271B
:100350004908B6460026C0C5C0C5C0C5C0C5C0C591
:10036000C0C5C0C5C0C5403D49008D46704710B5E9
:100370000446C046C0462046FFF7EDFE10BD000013
:10038000004870472000002001491820ABBEFEE75E
:100390002600020070470000094800680004000EB3
:1003A0000849087008490978884206D0054800784D
:1003B000054908700348007870470020FCE70000FA
:1003C00000000B401D0000201C00002070B50546F9
:1003D000F72D18D008DC7F2D0DD0BF2D0DD0DF2DCF
:1003E0000DD0EF2D2FD10CE0FB2D16D0FD2D16D00A
:1003F000FE2D28D11DE0082427E0072425E006244F
:1004000023E0052421E05A2000F0F6F904241048E6
:100410000078401C0E49087017E0032415E00A20FC
:1004200000F0EAF902240A480078401C08490870E4
:100430000BE0012000F0E0F9012405480078401CA1
:100440000349087001E0002400BF00BF204670BDD2
:10045000090000200F20800122490862FF20224964
:10046000486222480078002804D0012814D00228CD
:1004700035D123E040201B4948621B4800681C49D5
:100480001C4A1278895C08431749086017480078AD
:10049000401C1649087022E0802012494862124828
:1004A00000681349144A1278895C08430E490860B1
:1004B0000E480078401C0D49087010E0FF20013004
:1004C000084948620848006809490C4A1278895C62
:1004D00008430549086000200449087000BF00BFB8
:1004E0007047000000800A4000000B401E00002002
:1004F000680800000A0000200B0000200C0000200B
:1005000001202049886000BF1E480068042108407F
:100510000028F9D01C481B49486000BF19480068F2
:10052000022108400028F9D0FF2007301549C86093
:10053000C8601648C8611648164948601648C86021
:100540001648886116480860FF201649486012481E
:10055000C86015488861F0200860012040031349F5
:1005600048600D48C8600320800688610A4808601A
:100570000F481049486108460069072108430D49A2
:100580000861704700000240040800001008E023E2
:10059000C8FB000000800A40FFFF00004055555591
:1005A000F0FD000000000B405555000000800B409E
:1005B0008032020000E000E04162704705480078A8
:1005C000401C0449087004480068401C0249086047
:1005D00070470000040000201000002070B547485C
:1005E00000685A2813D245480068800044490D5AD3
:1005F000424800684000401C40000C5A41484249B3
:1006000008624249086240484562084644623B48E5
:1006100000685A281ED939480068B4281AD23748C9
:1006200000685A38800036490D5A344800685A38F4
:100630004000401C40000C5A32483349086233499C
:100640000862012109033048FFF7B6FF2E484562D2
:100650002E48446229480068B42825D927480068F4
:10066000FF210F3188421FD224480068B43880002F
:1006700023490D5A21480068B4384000401C40000E
:100680000C5A2048204908622049086201210903C8
:100690001D48FFF791FF012149031B48FFF78CFF1D
:1006A000194845621948446214480068FF210F3117
:1006B000884222D911480068FF21693188421CD242
:1006C0000E480068FF380F3880000D490D5A0B485E
:1006D0000068FF380F384000401C40000C5A0948A1
:1006E0000949086209490862012149030648FFF7E0
:1006F00063FF054845620548446270BD1400002050
:1007000072080000FFFF000000000C4000800C4059
:10071000FFF7F6FEFFF740FE2A49087051E02A482D
:10072000007800284DD0002027490870274800781D
:10073000002806D000202549087025482549086072
:1007400007E022480078401C2049087022482149CF
:10075000086022480068142833D300201F4908602D
:10076000FFF71AFE174908700846007800281DD0C8
:1007700008460078FFF72AFE1949087008460078F5
:10078000032813D117480078002805D00020154908
:10079000087000F031F809E0012012490870FF20CC
:1007A000114908701149087011490870FFF752FE8D
:1007B00010480078002804D000200E490870FFF788
:1007C0000DFFACE708000020040000200500002019
:1007D000FFDF000000800B40FFFF00001000002042
:1007E000060000200D0000200C0000200B0000205F
:1007F0000A0000200900002070B505461648006870
:1008000040191549086008460068FF216831884290
:1008100004D911480068401A0F49086064210E4845
:100820000068FFF7D5FC0D4908700846047864217C
:100830004C4309490968081B0A21FFF7C9FC08490C
:10084000087005480078011B054800780A225043CB
:10085000081A0449087070BD140000200A00002026
:100860000B0000200C000020445F260E1D8C845ECF
:10087000040C0000FF0F0000C70F00003A0000004A
:10088000320000002E0000002A00000027000000B7
:100890002500000022000000200000001E000000D3
:1008A0001D0000001B0000001A00010019000100DB
:1008B00018000100170001001600010014000100DB
:1008C00013000100130001001200010011000100DB
:1008D00010000200100002000F0002000E000200D3
:1008E0000E0002000D0002000C0002000C000300CC
:1008F0000C0003000B0003000B0003000A000400BF
:100900000A0004000A0004000900040008000400B2
:1009100008000500080005000700050007000600A4
:100920000700060007000600060007000600070093
:100930000600070005000700050008000500080084
:10094000040008000400090004000A0004000A0072
:1009500004000A0003000B0003000B0003000C005E
:1009600003000C0002000C0002000D0002000E004B
:1009700002000E0002000F00020010000200100032
:10098000010011000100120001001300010013001A
:1009900001001400010016000100170001001800FA
:1009A0000100190001001A0000001B0000001D00DA
:1009B00000001E00000020000000220000002500B2
:1009C0000000270000002A0000002E000000320076
:1009D00000003A000000C70F0000FE0F0000FE0FED
:1009E00000000000040A00000000002020000000B9
:1009F00004010000240A0000200000206020000004
:100A000020010000000000000000000000000000C5
:100A100000000000000000000000000000000000D6
:040A200000000000D2
:040000050000016591
:00000001FF
